:100000000C945D000C9485000C9485000C94850084
:100010000C9485000C9485000C9485000C9485004C
:100020000C9485000C9485000C9485000C9485003C
:100030000C9485000C9485000C94B5040C948500F8
:100040000C946B040C9485000C9439040C941304E8
:100050000C9485000C9485000C9485000C9485000C
:100060000C9485000C94850000000008000201003B
:100070000003040700000000000000000000000072
:10008000250028002B0000000000240027002A0083
:10009000040404040404040402020202020203032E
:1000A0000303030301020408102040800102040836
:1000B0001020010204081020DF0411241FBECFEF1E
:1000C000D8E0DEBFCDBF11E0A0E0B1E0ECEEFDE096
:1000D00002C005900D92A231B107D9F722E0A2E14A
:1000E000B1E001C01D92AA32B207E1F710E0CDE500
:1000F000D0E004C02197FE010E94E906CC35D1076B
:10010000C9F70E9410050C94F4060C94000090E0CE
:10011000FC01EC55FF4F2491FC01E057FF4F849107
:10012000882399F090E0880F991FFC01EA57FF4F50
:10013000A591B491FC01E458FF4F859194918FB73C
:10014000F894EC91E22BEC938FBF0895DC01ED91D4
:10015000FC910190F081E02D0994DC01ED91FC917E
:100160000190F081E02D0994CF92DF92EF92FF92FF
:100170000F931F93CF93DF936C017A018B01C0E043
:10018000D0E0CE15DF0581F0D8016D918D01D6014B
:10019000ED91FC910190F081E02DC6010995892B2C
:1001A00011F02196EECF7E01C701DF91CF911F9113
:1001B0000F91FF90EF90DF90CF900895089580E029
:1001C00090E00895FC01538D448D252F30E0842F5D
:1001D00090E0821B930B541710F0CF96089501976F
:1001E0000895FC01918D828D981761F0828DDF0159
:1001F000A80FB11D5D968C91928D9F5F9F73928F1A
:1002000090E008958FEF9FEF0895FC01918D828D0E
:10021000981731F0828DE80FF11D858D90E00895DB
:100220008FEF9FEF0895FC01918D228D892F90E033
:10023000805C9F4F821B91098F739927089581E2FB
:1002400091E00E94130121E0892B09F420E0822F24
:100250000895FC01848DDF01A80FB11DA35ABF4F83
:100260002C91848D90E001968F739927848FA689B5
:10027000B7892C93A089B1898C91837080648C9309
:10028000938D848D981306C00288F389E02D8081B8
:100290008F7D80830895EF92FF920F931F93CF93EA
:1002A000DF93EC0181E0888F9B8D8C8D981305C0C6
:1002B000E889F989808185FD26C0F62E0B8D10E036
:1002C0000F5F1F4F0F731127E02E8C8DE8120CC0AB
:1002D0000FB607FCFACFE889F989808185FFF5CF51
:1002E000CE010E942901F1CF8B8DFE01E80FF11D97
:1002F000E35AFF4FF0829FB7F8940B8FEA89FB898E
:10030000808180620AC09FB7F894EE89FF8960837C
:10031000E889F98980818370806480839FBF81E050
:1003200090E0DF91CF911F910F91FF90EF90089592
:10033000CF93DF93EC01888D8823C9F0EA89FB898C
:10034000808185FD05C0A889B9898C9186FD0FC083
:100350000FB607FCF5CF808185FFF2CFA889B98958
:100360008C9185FFEDCFCE010E942901E7CFDF916F
:10037000CF91089580E090E0892B29F00E941F0121
:1003800081110C940000089590E0FC01E859FF4FA2
:100390002491FC01EC55FF4F3491FC01E057FF4FD5
:1003A000E491EE2309F43CC0222339F1233091F08B
:1003B00038F42130A9F0223001F584B58F7D12C0C8
:1003C000273091F02830A1F02430B9F480918000DA
:1003D0008F7D03C0809180008F77809380000DC057
:1003E00084B58F7784BD09C08091B0008F7703C03A
:1003F0008091B0008F7D8093B000F0E0EE0FFF1F82
:10040000E458FF4FA591B4919FB7F894611104C0CF
:100410008C913095382302C0EC913E2B3C939FBFCA
:1004200008951F93CF93DF93182FEB010E9487004D
:10043000209711F460E004C0CF3FD10539F461E0AA
:10044000812FDF91CF911F910C94C401E12FF0E037
:10045000E859FF4FE491E330F9F048F4E130B9F0A6
:10046000E230A1F584B5806284BDC8BD34C0E730F8
:10047000E9F0E83019F1E43049F5809180008062BC
:1004800080938000D0938B00C0938A0024C084B5F1
:10049000806884BDC7BD1FC0809180008068809344
:1004A0008000D0938900C093880015C08091B0006F
:1004B00080688093B000C093B3000DC08091B000FD
:1004C00080628093B000C093B40005C0C038D105ED
:1004D0000CF0B5CFAFCFDF91CF911F9108953FB70B
:1004E000F8948091130190911401A0911501B0919D
:1004F000160126B5A89B05C02F3F19F00196A11D36
:10050000B11D3FBFBA2FA92F982F8827820F911DA9
:10051000A11DB11DBC01CD0142E0660F771F881FF0
:10052000991F4A95D1F708952F923F924F925F926B
:100530006F927F928F929F92AF92BF92CF92DF92F3
:10054000EF92FF920F931F93CF93DF93EC01FC0187
:10055000E659FF4F80819181009711F00E9494022B
:100560007E0108E4E00EF11C54E0352E5E011AE431
:10057000A10EB11C63E0262E3E0129E6620E711C1D
:100580007BE8872E992493948C819D81DC01ED91E9
:10059000FC910084F185E02D0995181619060CF0E0
:1005A0002DC12FB7F8948091170190911801A09157
:1005B0001901B0911A012FBF4E815F81688579853D
:1005C0008C019D01041B150B260B370B0330110505
:1005D0002105310508F01B828E839F83A887B98788
:1005E0008C819D81DC01ED91FC910284F385E02DED
:1005F0000995282F3B813130B1F028F0323051F18C
:10060000333061F1C1CF3CEF380F3D3108F0F4C019
:100610001AA623502BA7992780959095F7019183CF
:100620008083F1E015C09AA541E0490F4AA7FE0179
:10063000E90FF11D8287D7012D913C911197F901A6
:10064000E81BF109ED93FC938BA548139DCFF2E0D5
:10065000FB839ACFD5018C932B8296CF982F882736
:10066000F5012081820F911DD7012D913C91281712
:10067000390709F0C1C02A852034E9F4DE0121E000
:10068000822F8695FE01E80FF11DE80FF11D1C96E3
:100690008C911C9790E0982F88271B963C911B9774
:1006A000832B95A784A72E5F12962D3149F78A8157
:1006B0008F5F8A83A1C0022F0F70F30180818017A2
:1006C00008F49AC0002309F497C08BA5813009F083
:1006D00093C0C4010197F1F7207F8C819D8120395F
:1006E000C1F0203A09F441C0203809F085C02881C2
:1006F0002F5F288364E070E00E94AD0010E0B80135
:1007000060587F4F8C819D810E94AD000C571F4F18
:100710005EC066E070E00E94AD0010E0B801605776
:100720007F4F8C819D810E94AD008C819D816E01E7
:10073000C00ED11EBBE4CB0ED11CDC01ED91FC91AF
:100740000190F081E02DD6016C91099562E070E096
:100750008C819D810E94AD000A561F4FF601808159
:10076000080F111D0E5F1F4F32C029812F5F298393
:1007700066E070E00E94AD0010E0B80160567F4F67
:100780008C819D810E94AD006801CC0CDD1CCC0EDB
:10079000DD1EB5E5CB0ED11CF60160817181772796
:1007A0008C819D810E94A600D60111966C9170E00B
:1007B0008C819D810E94A600F60180819181492E45
:1007C000512C0A551F4F040D151D080F111D0095C2
:1007D0001095D7010D931C93F701608171817727E4
:1007E0008C819D810E94A600D70111966C9170E0CA
:1007F0008C819D810E94A6003B82C6CEDF91CF9165
:100800001F910F91FF90EF90DF90CF90BF90AF902E
:100810009F908F907F906F905F904F903F902F9020
:1008200008950E94EF061F920F920FB60F921124A7
:100830002F933F934F935F936F937F938F939F93E8
:10084000AF93BF93EF93FF9381E291E00E94290160
:10085000FF91EF91BF91AF919F918F917F916F9198
:100860005F914F913F912F910F900FBE0F901F906E
:1008700018951F920F920FB60F9211242F938F93FA
:100880009F93EF93FF93E0913101F09132018081CA
:10089000E0913701F091380182FD12C09081809182
:1008A0003A018F5F8F7320913B01821751F0E091E5
:1008B0003A01F0E0EF5DFE4F958F80933A0101C061
:1008C0008081FF91EF919F918F912F910F900FBE9B
:1008D0000F901F9018951F920F920FB60F92112430
:1008E0002F933F938F939F93AF93BF938091170163
:1008F00090911801A0911901B0911A013091120143
:1009000023E0230F2D3720F40196A11DB11D05C052
:1009100026E8230F0296A11DB11D2093120180939A
:10092000170190931801A0931901B0931A018091B7
:10093000130190911401A0911501B0911601019637
:10094000A11DB11D8093130190931401A093150173
:10095000B0931601BF91AF919F918F913F912F91CD
:100960000F900FBE0F901F9018951F920F920FB609
:100970000F9211242F933F934F935F936F937F9325
:100980008F939F93AF93BF93EF93FF9380911B013E
:1009900090911C01009711F00E949402FF91EF9139
:1009A000BF91AF919F918F917F916F915F914F9187
:1009B0003F912F910F900FBE0F901F901895E1E27D
:1009C000F1E01382128288EE93E0A0E0B0E084832D
:1009D0009583A683B78384E091E09183808385EC3F
:1009E00090E09587848784EC90E09787868780ECF9
:1009F00090E0918B808B81EC90E0938B828B82ECEA
:100A000090E0958B848B86EC90E0978B868B118E93
:100A1000128E138E148E10922902109228020895BD
:100A2000789484B5826084BD84B5816084BD85B5C9
:100A3000826085BD85B5816085BD80916E008160D5
:100A400080936E001092810080918100826080937B
:100A5000810080918100816080938100809180007D
:100A60008160809380008091B10084608093B100A8
:100A70008091B00081608093B00080917A008460A2
:100A800080937A0080917A00826080937A008091CE
:100A90007A00816080937A0080917A0080688093E8
:100AA0007A001092C100E0913101F091320182E0B0
:100AB0008083E0912D01F0912E011082E0912F01B1
:100AC000F091300180E1808310923901E09135018D
:100AD000F091360186E08083E0913301F09134019A
:100AE000808180618083E0913301F09134018081C5
:100AF00088608083E0913301F091340180818068C7
:100B00008083E0913301F091340180818F7D808377
:100B100081E291E09093C3018093C20184E08093CD
:100B2000C1012FB7F8948091170190911801A091FD
:100B30001901B0911A012FBF8093C4019093C50190
:100B4000A093C601B093C7011092E8011092E90189
:100B500010920702109206021092080280911B0167
:100B600090911C019093290280932802892B39F4DB
:100B70008FEA87BD80916E00826080936E008EEB5D
:100B800091E090931C0180931B0183E00E948700F9
:100B900084E00E94870087E00E94870088E00E942E
:100BA000870082E00E94870092EEC92E93E0D92E42
:100BB000E12CF12C2091EC013091ED01C901A0E074
:100BC000B0E09C01AD012E5E334041095109AFEF09
:100BD000B0E00E94AD06A70196010E948E06490171
:100BE0005A01E9012091EE013091EF01C901A0E025
:100BF000B0E09C01AD012E5E334041095109AFEFD9
:100C0000B0E00E94AD06A70196010E948E06290160
:100C10003A0180911F01909120018217930781F082
:100C200060E082E00E94C401B20185E00E941102EE
:100C3000B20186E00E9411025092200140921F01F1
:100C400080911D0190911E01C817D907F1F1C1389B
:100C5000D10574F061E082E00E94C40161E083E0AC
:100C60000E94C40160E084E00E94C40161E022C0EF
:100C7000C038D10591F061E082E00E94C40160E0DB
:100C800083E00E94C40161E084E00E94C40160E04E
:100C900087E00E94C40161E011C060E082E00E9430
:100CA000C40160E083E00E94C40160E084E00E942F
:100CB000C40160E087E00E94C40160E088E00E9417
:100CC000C40190921E0180921D010E946F022B01AF
:100CD0003C0184E6882E912CA12CB12C0E946F023D
:100CE000DC01CB0184199509A609B709883E934018
:100CF000A105B10598F321E0821A9108A108B10875
:100D000088EE480E83E0581E611C711C811491040A
:100D1000A104B10419F70E94BA014CCF052E97FB2C
:100D20001EF400940E94A50657FD07D00E94B80645
:100D300007FC03D04EF40C94A506509540953095D1
:100D400021953F4F4F4F5F4F089590958095709537
:100D500061957F4F8F4F9F4F08950E94DA06A59FA0
:100D6000900DB49F900DA49F800D911D11240895A6
:100D7000A1E21A2EAA1BBB1BFD010DC0AA1FBB1F9F
:100D8000EE1FFF1FA217B307E407F50720F0A21B11
:100D9000B30BE40BF50B661F771F881F991F1A947E
:100DA00069F760957095809590959B01AC01BD01A8
:100DB000CF010895A29FB001B39FC001A39F700D02
:100DC000811D1124911DB29F700D811D1124911D53
:100DD0000895EE0FFF1F0590F491E02D099481E036
:0C0DE00090E0F8940C94F406F894FFCF17
:100DEC00000000004B01B400E20098011301F10077
:020DFC000501EF
:00000001FF
