:100000000C945D000C9485000C9485000C94850084
:100010000C9485000C9485000C9485000C9485004C
:100020000C9485000C9485000C9485000C9485003C
:100030000C9485000C9485000C94CE050C948500DE
:100040000C9484050C9485000C9452050C942C059A
:100050000C9485000C9485000C9485000C9485000C
:100060000C9485000C94850000000008000201003B
:100070000003040700000000000000000000000072
:10008000250028002B0000000000240027002A0083
:10009000040404040404040402020202020203032E
:1000A0000303030301020408102040800102040836
:1000B0001020010204081020F80511241FBECFEF04
:1000C000D8E0DEBFCDBF11E0A0E0B1E0E6E0F2E1B4
:1000D00002C005900D92A833B107D9F722E0A8E33A
:1000E000B1E001C01D92AA39B207E1F710E0CDE5F9
:1000F000D0E004C02197FE010E94F608CC35D1075C
:10010000C9F70E943B060C9401090C94000090E092
:10011000FC01EC55FF4F2491FC01E057FF4F849107
:10012000882399F090E0880F991FFC01EA57FF4F50
:10013000A591B491FC01E458FF4F859194918FB73C
:10014000F894EC91E22BEC938FBF0895EBE4F1E08F
:10015000A089B18982E08C93A485B5851C92A6857F
:10016000B78580E18C93108EA489B58986E08C9345
:10017000A289B3898C9180618C93A289B3898C9177
:1001800088608C93A289B3898C9180688C93028853
:10019000F389E02D80818F7D80830895DC01ED91CE
:1001A000FC910190F081E02D0994DC01ED91FC912E
:1001B0000190F081E02D0994CF92DF92EF92FF92AF
:1001C0000F931F93CF93DF936C017A018B01C0E0F3
:1001D000D0E0CE15DF0581F0D8016D918D01D601FB
:1001E000ED91FC910190F081E02DC6010995892BDC
:1001F00011F02196EECF7E01C701DF91CF911F91C3
:100200000F91FF90EF90DF90CF900895089580E0D8
:1002100090E00895FC01538D448D252F30E0842F0C
:1002200090E0821B930B541710F0CF96089501971E
:100230000895FC01918D828D981761F0828DDF0108
:10024000A80FB11D5D968C91928D9F5F9F73928FC9
:1002500090E008958FEF9FEF0895FC01918D828DBE
:10026000981731F0828DE80FF11D858D90E008958B
:100270008FEF9FEF0895FC01918D228D892F90E0E3
:10028000805C9F4F821B91098F73992708958BE49F
:1002900091E00E943B0121E0892B09F420E0822FAC
:1002A0000895FC01848DDF01A80FB11DA35ABF4F33
:1002B0002C91848D90E001968F739927848FA68965
:1002C000B7892C93A089B1898C91837080648C93B9
:1002D000938D848D981306C00288F389E02D808168
:1002E0008F7D80830895EF92FF920F931F93CF939A
:1002F000DF93EC0181E0888F9B8D8C8D981305C076
:10030000E889F989808185FD26C0F62E0B8D10E0E5
:100310000F5F1F4F0F731127E02E8C8DE8120CC05A
:100320000FB607FCFACFE889F989808185FFF5CF00
:10033000CE010E945101F1CF8B8DFE01E80FF11D1E
:10034000E35AFF4FF0829FB7F8940B8FEA89FB893D
:10035000808180620AC09FB7F894EE89FF8960832C
:10036000E889F98980818370806480839FBF81E000
:1003700090E0DF91CF911F910F91FF90EF90089542
:10038000CF93DF93EC01888D8823C9F0EA89FB893C
:10039000808185FD05C0A889B9898C9186FD0FC033
:1003A0000FB607FCF5CF808185FFF2CFA889B98908
:1003B0008C9185FFEDCFCE010E945101E7CFDF91F7
:1003C000CF91089580E090E0892B29F00E944701A9
:1003D00081110C940000089590E0FC01E859FF4F52
:1003E0002491FC01EC55FF4F3491FC01E057FF4F85
:1003F000E491EE2309F43CC0222339F1233091F03B
:1004000038F42130A9F0223001F584B58F7D12C077
:10041000273091F02830A1F02430B9F48091800089
:100420008F7D03C0809180008F77809380000DC006
:1004300084B58F7784BD09C08091B0008F7703C0E9
:100440008091B0008F7D8093B000F0E0EE0FFF1F31
:10045000E458FF4FA591B4919FB7F894611104C07F
:100460008C913095382302C0EC913E2B3C939FBF7A
:1004700008951F93CF93DF93182FEB010E948700FD
:10048000209711F460E004C0CF3FD10539F461E05A
:10049000812FDF91CF911F910C94EC01E12FF0E0BF
:1004A000E859FF4FE491E330F9F048F4E130B9F056
:1004B000E230A1F584B5806284BDC8BD34C0E730A8
:1004C000E9F0E83019F1E43049F58091800080626C
:1004D00080938000D0938B00C0938A0024C084B5A1
:1004E000806884BDC7BD1FC08091800080688093F4
:1004F0008000D0938900C093880015C08091B0001F
:1005000080688093B000C093B3000DC08091B000AC
:1005100080628093B000C093B40005C0C038D1059C
:100520000CF0B5CFAFCFDF91CF911F9108953FB7BA
:10053000F89480913D0190913E01A0913F01B091CE
:10054000400126B5A89B05C02F3F19F00196A11DBB
:10055000B11D3FBFBA2FA92F982F8827820F911D59
:10056000A11DB11DBC01CD0142E0660F771F881FA0
:10057000991F4A95D1F708958F929F92AF92BF929B
:10058000CF92DF92EF92FF926B017C010E94970263
:100590004B015C01C114D104E104F104F1F00E94AB
:1005A0009702DC01CB0188199909AA09BB09883E89
:1005B0009340A105B10570F321E0C21AD108E1080A
:1005C000F10888EE880E83E0981EA11CB11CC114AE
:1005D000D104E104F10419F7DDCFFF90EF90DF9033
:1005E000CF90BF90AF909F908F9008952FB7F894C1
:1005F0006091390170913A0180913B0190913C01E9
:100600002FBF08952F923F924F925F926F927F92E9
:100610008F929F92AF92BF92CF92DF92EF92FF9212
:100620000F931F93CF93DF93CDB7DEB728970FB605
:10063000F894DEBF0FBECDBF9E838D83FC01E659CB
:10064000FF4F80819181009711F00E940203ED809D
:10065000FE8028E4E20EF11C54E0352E4D815E81CF
:10066000465B5F4F58874F8363E0262E6D807E8008
:1006700059E6650E711C7BE8872E99249394AD8111
:10068000BE8114968D919C911597DC01ED91FC91A2
:100690000084F185E02D0995181619060CF06EC13D
:1006A0000E94F602AD81BE811696AD90BD90CD90B0
:1006B000DC9019979B01AC012A193B094C095D0993
:1006C000233031054105510510F013961C92AD8180
:1006D000BE8116966D937D938D939C931997149676
:1006E0008D919C911597DC01ED91FC910284F3852D
:1006F000E02D0995282FED81FE8133813130F1F015
:1007000028F03230C1F13330E9F1B9CF3CEF380F86
:100710003D3108F02EC1AD81BE819A961C929A9708
:1007200023509B962C939B97992780959095F70142
:1007300091838083F1E01396FC93A1CFED81FE813C
:1007400092A541E0490F42A7E90FF11D8287D70129
:100750002D913C911197F901E81BF109ED93FC9360
:10076000AD81BE819B968C919B97481388CFE2E028
:100770001396EC9384CFAF81B8858C93ED81FE8185
:1007800023827DCF982F8827AF81B8852C91820F47
:10079000911DF701208131812817390709F0E9C03F
:1007A000AD81BE811A962C911A972034F9F421E07C
:1007B000822F8695ED81FE81E80FF11DE80FF11D76
:1007C0001C968C911C9790E0982F88271B963C9143
:1007D0001B97832B95A784A72E5F12962D3141F787
:1007E000ED81FE8182818F5F8283C3C0022F0F70F3
:1007F000D3018C91801708F4BCC0002309F4B9C060
:10080000ED81FE8183A5813009F0B3C0C401019759
:10081000F1F7207F848195812039E1F0203A09F4B5
:100820004DC0203809F0A5C020812F5F208364E0EF
:1008300070E00E94D50010E0B80160587F4FAD8194
:10084000BE8114968D919C9115970E94D5000C57EE
:100850001F4F73C066E070E00E94D50010E0B80141
:1008600060577F4FAD81BE8114968D919C911597F5
:100870000E94D500ED81FE81848195816F01C00EBB
:10088000D11EFBE4CF0ED11CDC01ED91FC91019057
:10089000F081E02DD6016C91099562E070E0ED8168
:1008A000FE81848195810E94D5000A561F4FD60192
:1008B0008C91080F111D0E5F1F4F3FC0AD81BE818F
:1008C00011962C9111972F5F11962C9366E070E092
:1008D0000E94D50010E0B80160567F4FED81FE8187
:1008E000848195810E94D5006801CC0CDD1CAD800F
:1008F000BE80CA0CDB1C25E5C20ED11CD6016D9151
:100900007C917727F501848195810E94CE00D601E4
:1009100011966C9170E0ED81FE81848195810E9439
:10092000CE00D6018C9111969C91492E512C0A55DE
:100930001F4F040D151D080F111D00951095F7018F
:1009400011830083F701608171817727AD81BE81BA
:1009500014968D919C9115970E94CE00F7016181AC
:1009600070E0AD81BE8114968D919C9115970E9487
:10097000CE00AD81BE8113963C9281CE28960FB6F3
:10098000F894DEBF0FBECDBFDF91CF911F910F91C5
:10099000FF90EF90DF90CF90BF90AF909F908F909F
:1009A0007F906F905F904F903F902F9008950097A9
:1009B00069F0FC0101900020E9F73197AF01481B75
:1009C000590BBC018BE491E00C94DC0080E090E0DA
:1009D00008958F929F92AF92BF920F931F93CF93E0
:1009E000DF93CDB7DEB7A1970FB6F894DEBF0FBE89
:1009F000CDBF19A2423008F44AE08E010F5D1F4FAF
:100A0000842E912CA12CB12CA50194010E949B084D
:100A1000E62FB901CA0101501109EA3014F4E05D72
:100A200001C0E95CD801EC93232B242B252B61F723
:100A3000C8010E94D704A1960FB6F894DEBF0FBE7E
:100A4000CDBFDF91CF911F910F91BF90AF909F903D
:100A50008F9008950E94FC081F920F920FB60F927C
:100A600011242F933F934F935F936F937F938F93B3
:100A70009F93AF93BF93EF93FF938BE491E00E941A
:100A80005101FF91EF91BF91AF919F918F917F9114
:100A90006F915F914F913F912F910F900FBE0F90EB
:100AA0001F9018951F920F920FB60F9211242F933B
:100AB0008F939F93EF93FF93E0915B01F0915C0123
:100AC0008081E0916101F091620182FD12C090810C
:100AD000809164018F5F8F7320916501821751F0BF
:100AE000E0916401F0E0E55BFE4F958F8093640137
:100AF00001C08081FF91EF919F918F912F910F9075
:100B00000FBE0F901F9018951F920F920FB60F9265
:100B100011242F933F938F939F93AF93BF93809113
:100B2000390190913A01A0913B01B0913C01309183
:100B3000380123E0230F2D3720F40196A11DB11DAC
:100B400005C026E8230F0296A11DB11D2093380190
:100B50008093390190933A01A0933B01B0933C01FB
:100B600080913D0190913E01A0913F01B0914001E3
:100B70000196A11DB11D80933D0190933E01A0936C
:100B80003F01B0934001BF91AF919F918F913F91F1
:100B90002F910F900FBE0F901F9018951F920F92DC
:100BA0000FB60F9211242F933F934F935F936F9340
:100BB0007F938F939F93AF93BF93EF93FF93809116
:100BC000410190914201009711F00E940203FF91B0
:100BD000EF91BF91AF919F918F917F916F915F91B5
:100BE0004F913F912F910F900FBE0F901F9018952E
:100BF000EBE4F1E01382128288EE93E0A0E0B0E033
:100C000084839583A683B78384E091E09183808376
:100C100085EC90E09587848784EC90E097878687C1
:100C200080EC90E0918B808B81EC90E0938B828BB9
:100C300082EC90E0958B848B86EC90E0978B868B92
:100C4000118E128E138E148EE8EEF1E0168217824A
:100C500010861186128613861486158616861786C8
:100C6000108A118A128A138A148A158A109299029C
:100C7000109298020895789484B5826084BD84B5FA
:100C8000816084BD85B5826085BD85B5816085BD87
:100C900080916E00816080936E001092810080913F
:100CA00081008260809381008091810081608093C7
:100CB0008100809180008160809380008091B100EC
:100CC00084608093B1008091B00081608093B00017
:100CD00080917A00846080937A0080917A008260AB
:100CE00080937A0080917A00816080937A0080916D
:100CF0007A00806880937A001092C10010922A02D4
:100D000010922B0210922C0210922D021092EA01E6
:100D10001092EB011092EC011092ED010E94F6028C
:100D20006B017C014B015C0128EB820E2BE0921ED3
:100D3000A11CB11C0E94F6026C157D058E059F0555
:100D400028F086169706A806B906A0F760ED77E0AA
:100D500080E090E00E94BC020E94A6000E94F60281
:100D60006093EA017093EB018093EC019093ED01A5
:100D700082E191E00E94D7040E94F6026B017C019F
:100D80004B015C013AE0830E911CA11CB11C0E9436
:100D9000F6026C157D058E059F0528F086169706D0
:100DA000A806B906A0F781E08093FE010E94A60084
:100DB0008BE491E0909333028093320284E080933D
:100DC00031020E94F60260933402709335028093E0
:100DD00036029093370210925802109259021092E4
:100DE00077021092760210927802809141019091E0
:100DF00042019093990280939802892B39F48FEAEB
:100E000087BD80916E00826080936E008EE292E0DA
:100E1000909342018093410183E00E94870084E027
:100E20000E94870087E00E94870088E00E94870078
:100E300082E00E94870082EE882E83E0982EA12C0B
:100E4000B12C0E94F602672B682B692B41F40E949B
:100E5000F602623071058105910508F4E8C00E9430
:100E6000F602C0904701D0904801E0904901F0900F
:100E70004A016C157D058E059F0540F4609347017E
:100E8000709348018093490190934A01C0904701B3
:100E9000D0904801E0904901F0904A019B01AC01DB
:100EA0002C193D094E095F0969017A013AEFC31611
:100EB000D104E104F10408F4BAC0609347017093CF
:100EC00048018093490190934A0184EF91E0A0E0AA
:100ED000B0E08093F6019093F701A093F801B093EE
:100EE000F9011092FA011092FB011092FC0110928C
:100EF000FD018091EE019091EF01A091F001B09180
:100F0000F1018093F2019093F301A093F401B09367
:100F1000F5010E94F6026093EE017093EF01809359
:100F2000F0019093F1010E94F6026093EA01709340
:100F3000EB018093EC019093ED010E94F6026B01AE
:100F40007C0184E291E00E94D7044AE061E070E015
:100F500080E090E00E94E9048BE291E00E94D704D7
:100F60004AE0C701B6010E94E9048DE291E00E94C7
:100F7000D7048091EE019091EF01A091F001B09122
:100F8000F101A7019601281B390B4A0B5B0BCA0123
:100F9000B9014AE00E94E9048DE291E00E94D70481
:100FA0008091EE019091EF01A091F001B091F101DB
:100FB000C090F201D090F301E090F401F090F501BF
:100FC000BC01CD016C197D098E099F094AE00E9480
:100FD000E9048FE291E00E94D7040E94F6024AE001
:100FE0000E94E90481E391E00E94D70481E291E04C
:100FF0000E94D7040E94F6026B017C012B013C0188
:1010000035E0430E511C611C711C0E94F6026C15E8
:101010007D058E059F0508F087C00E94F60260934B
:10102000EE017093EF018093F0019093F101209114
:101030005A0230915B02C901A0E0B0E09C01AD0111
:101040002E5E334041095109AFEFB0E00E94DC0849
:10105000A50194010E94BD0829013A01E9012091EE
:101060005E0230915F02C901A0E0B0E09C01AD01D9
:101070002E5E334041095109AFEFB0E00E94DC0819
:10108000A50194010E94BD0869017A018091450182
:10109000909146018217930761F0B90185E00E94A3
:1010A0003902B60186E00E943902D0924601C09210
:1010B00045018091430190914401C817D90759F126
:1010C00061E082E0C138D10584F00E94EC0161E06A
:1010D00083E00E94EC0160E084E00E94EC0161E0AA
:1010E00087E00E94EC0160E00FC00E94EC0160E02C
:1010F00083E00E94EC0161E084E00E94EC0160E08A
:1011000087E00E94EC0161E088E00E94EC015092CF
:1011100044014092430164E670E080E090E00E9468
:10112000BC020E94E2018DCE46165706680679067B
:1011300008F06BCF72CFA1E21A2EAA1BBB1BFD01D8
:101140000DC0AA1FBB1FEE1FFF1FA217B307E407A6
:10115000F50720F0A21BB30BE40BF50B661F771FFE
:10116000881F991F1A9469F76095709580959095DE
:101170009B01AC01BD01CF010895052E97FB1EF424
:1011800000940E94D40857FD07D00E949B0807FCDA
:1011900003D04EF40C94D408509540953095219589
:1011A0003F4F4F4F5F4F0895909580957095619593
:1011B0007F4F8F4F9F4F08950E94E708A59F900D86
:1011C000B49F900DA49F800D911D11240895A29F9E
:1011D000B001B39FC001A39F700D811D1124911D0B
:1011E000B29F700D811D1124911D0895EE0FFF1FF8
:1011F0000590F491E02D099481E090E0F8940C942E
:061200000109F894FFCF84
:10120600000000007301DC000A01C0013B01190166
:101216002D01564D4450565F317C315F564D44503A
:10122600560D0A00564D4450455F003A323A007C4E
:08123600005F564D44504500D5
:00000001FF
